:020000022000DC
:1060000000000120396202009162020093620200E6
:10601000956202009762020099620200000000008F
:106020000000000000000000000000009B62020071
:106030009D620200000000009F620200A162020057
:10604000DD1C0300A7620200A9620200AB6202002D
:10605000AD620200AF6202005D270300E930030079
:10606000B5620200B7620200B9620200BB620200C0
:10607000BD620200912D0300C1620200C3620200F2
:10608000C562020005800200C9620200CB62020004
:1060900045800200CF6202000D940300D36202002B
:1060A000D5620200D7620200D9620200DB62020000
:1060B000DD620200DF620200A3620200A36202004E
:1060C000E1620200E3620200E5620200E7620200B0
:0C60D000E9620200EB620200ED620200D7
:1060DC00354936480A1A02D0072291438D46344975
:1060EC0034480A1A06D00722914381F30988022208
:1060FC0082F3148830483149314A00F044F8314871
:10610C003149324A00F03FF831483249324A00F006
:10611C003AF832483249334A00F035F832483349BC
:10612C00334A00F030F833483349344A00F02BF846
:10613C0033483449344A00F026F8344834490022B4
:10614C0000F02CF833483449002200F027F833488B
:10615C003349091A082902DB002202604160314AE6
:10616C0090471F481F49884205D00268043003B489
:10617C00904703BCF7E700208646EC460020002140
:10618C00294A9047FEE7884207D0521A05D0037877
:10619C0001300B700131013AF9D17047884202D0BD
:1061AC0002700130FAE770470000012000E0002087
:1061BC000000012000000120C8F80300CC220020C0
:1061CC0024230020F0620200F062020088B8030071
:1061DC00C8F80300CC220020CC22002030B90300E8
:1061EC0030B9030030B9030030B9030030B90300F3
:1061FC0030B9030030B9030030B90300C8F803000C
:10620C0020F9030024230020242300202423002031
:10621C0087370020883700208837002088370020F7
:10622C00885700205D620200B56503000F484FF0EF
:10623C000701884385460E4880470E48016841F4A3
:10624C0070010160BFF34F8FBFF36F8FFFF740BF3B
:10625C0009480A490A4A884207D0521A05D00378DD
:10626C0001300B700131013AF9D170470000012067
:10627C008D7E030088ED00E01CB90300B8220020DD
:10628C00CC220020FEE7FEE7FEE7FEE7FEE7FEE796
:10629C00FEE7FEE7FEE7FEE7FEE7FEE7FEE7FEE7CA
:1062AC00FEE7FEE7FEE7FEE7FEE7FEE7FEE7FEE7BA
:1062BC00FEE7FEE7FEE7FEE7FEE7FEE7FEE7FEE7AA
:1062CC00FEE7FEE7FEE7FEE7FEE7FEE7FEE7FEE79A
:1062DC00FEE7FEE7FEE7FEE7FEE7FEE7FEE7FEE78A
:0462EC00FEE700BF0A
:1062F000FEE7000000B587B003460A468DF8073078
:1063000013468DF8063000238DF8173000230493D0
:106310009DF8073018460AF0BDFE0490049B032B3D
:1063200061D89DF80630022B52D0022B5EDC002B88
:1063300031D0012B5AD13649049A13465B001344DD
:106340000B441B788DF817303149049A13465B00D3
:1063500013440B4401331B78002B0ED02D4B2E4AD7
:106360004FF40041184601F0D7FE0390039B002B29
:1063700003D1294A9DF8073013702549049A134622
:106380005B0013440B4402331978244A049B1344E2
:106390000A461A702AE01F4B184601F0EFFE1F4A0A
:1063A000049B134419781A48049A13465B0013445B
:1063B000034402331B78994217D11549049A1346B6
:1063C0005B0013440B4402331B788DF817300CE04C
:1063D0000F49049A13465B0013440B4401331B78A6
:1063E0008DF8173002E000BF00E000BF9DF81730C5
:1063F000002B09D00A4B1B68002B05D0084B1B68EB
:106400009DF817201046984700BF07B05DF804FBC1
:106410007423002080230020A0230020A423002038
:106420007023002000B583B00190019B1B780221EE
:106430001846FFF75FFF00BF03B05DF804FB0000E4
:1064400000B583B00C4B1B78002B0FD000230193B9
:1064500008E0019B022B02D001980AF08DFD019B00
:1064600001330193019B032BF3D901E00AF09EFD58
:1064700000BF03B05DF804FB2C2300202DE9F04F92
:1064800087B003468DF80F30002305930023049353
:10649000CE4B1B78002B04D0CC4B00221A70FFF798
:1064A000CFFF9DF80F30172B00F2238201A252F884
:1064B00023F000BF1565020023650200236502007A
:1064C000B565020043660200B7660200436702003A
:1064D000636702007367020091670200AF67020002
:1064E000D9670200F767020005680200056802002C
:1064F0000568020005680200056802009568020050
:10650000A3680200B7680200CB680200E5680200D9
:10651000E5680200FFF794FFAD4A9DF80F30137055
:10652000E8E100200AF0E0FC0346002B0DD000203B
:106530000AF022FD9DF80F30022B02D14FF4E163E7
:1065400001E04FF47A6304930BE000200AF0FAFCB8
:106550009DF80F30022B01D1C82301E04FF4C8731E
:1065600004939B4A9DF80F3013709A4C049B184675
:106570004FF000014FF000024FF00003CB0343EA5D
:106580005043C20312F5FA71009143F100030193E5
:106590004FF47A724FF00003DDE9000113F0FAF8CE
:1065A00002460B46134600221946204601F0B4FD70
:1065B00005909FE100200AF097FC0346002B0DD0C8
:1065C00000200AF0D9FC9DF80F30032B02D14FF4C4
:1065D000487301E04FF47A6304930BE000200AF063
:1065E000B1FC9DF80F30032B01D1C82301E04FF41B
:1065F000C8730493764A9DF80F301370754C049B52
:1066000018464FF000014FF000024FF00003CB039B
:1066100043EA5043C20312F5FA7A43F1000B4FF4F8
:106620007A724FF000035046594613F0B3F8024611
:106630000B46134600221946204601F06DFD0590D9
:1066400058E100200AF050FC0346002B06D0002041
:106650000AF092FC4FF47A63049305E000200AF0FC
:1066600071FC4FF4C8730493594A9DF80F301370AE
:10667000584C049B18464FF000014FF000024FF0B9
:106680000003CB0343EA5043C20312F5FA7843F107
:1066900000094FF47A724FF000034046494613F068
:1066A00079F802460B46134600221946204601F0AF
:1066B00033FD05901EE100200AF016FC0346002B76
:1066C0000CD000200AF058FC9DF80F30052B01D1AA
:1066D000C82301E04FF47A6304930BE000200AF032
:1066E00031FC9DF80F30052B01D1C82301E04FF498
:1066F000C8730493364A9DF80F301370354C049BD1
:1067000018464FF000014FF000024FF00003CB039A
:1067100043EA5043C20312F5FA7643F100074FF4FF
:106720007A724FF000033046394613F033F80246D0
:106730000B46134600221946204601F0EDFC059059
:10674000D8E000200AF058FC214A9DF80F30137061
:10675000204B002240F6CD41184601F0DDFC0590AB
:10676000C8E000200AF0EEFB194A9DF80F301370C4
:10677000C0E0164B01221A7001200AF03DFC154BB7
:10678000002240F6CD41184601F0C6FC0590B1E06C
:106790000E4B01221A7001200AF02EFC0D4B002234
:1067A0004FF48041184601F0B7FC0590A2E0074B7A
:1067B00001221A7001200AF01FFC064B002240F64D
:1067C000CD41184601F0A8FC059093E02523002058
:1067D0002423002030230020494B01221A7001207D
:1067E0000AF00AFC474B00224FF48041184601F0A2
:1067F00093FC05907EE00AF0ECFB434A9DF80F30D5
:10680000137077E0414B184601F0B8FC05909DF8F5
:106810000F30C3F111030493049B002B33D0059B6D
:10682000002B30D1049B012B26D9384E049B9BB200
:106830001A46C82303FB02F318464FEAE0714FF0F3
:1068400000024FF00003CB0343EA5043C20312F5AA
:10685000FA7443F100054FF47A724FF000032046BA
:10686000294612F097FF02460B46134600221946AE
:10687000304601F051FC059002200AF063FB244BE6
:1068800001221A7036E002200AF076FB204B00222B
:106890001A702FE0FFF7D4FD1B4A9DF80F301370DC
:1068A00028E0FFF7CDFD00200AF04CFB164A9DF8CA
:1068B0000F3013701EE0FFF7C3FD01200AF042FB0A
:1068C000114A9DF80F30137014E0FFF7B9FD002056
:1068D0000AF038FB01200AF035FB0B4A9DF80F3017
:1068E000137007E00AF075FB074A9DF80F3013702C
:1068F00000E000BF059B184607B0BDE8F08F00BF61
:1069000025230020302300202423002050230020B2
:106910002C23002000B583B00190074B1B6803F0C7
:106920000103002B04D0054B1B781846FFF7A6FD8A
:1069300000BF03B05DF804FB2823002024230020BF
:1069400000B583B0019002200AF056FB00BF03B0EF
:106950005DF804FB00B585B001900091002303931E
:106960002A4A019B13602A4A009B1360019B03F093
:106970000203002B2AD00023029308E00122012108
:10698000029800F055F80390029B01330293029B9A
:10699000032B02D8039B002BF0D0039B002B06D1C6
:1069A00040F2666204211B4800F044FB0390039B05
:1069B000002B02D100F0BAFB0390039B002B05D102
:1069C000154A0021154801F077FB0390019B03F065
:1069D0000103002B14D001200AF07CFB039B002B49
:1069E00005D10F4A00210F4801F066FB0390039B7D
:1069F000002B05D10C4A01210C4801F05DFB0390EE
:106A0000039B184605B05DF804FB00BF2823002057
:106A1000702300203CB903002564020038B903004C
:106A20001569020030B903004169020034B903005E
:106A300084B001900B468DF8033013468DF8023078
:106A400000230393019B032B3CD89DF80230012BBC
:106A50000BD19DF80330012B04D1019BDBB20E3327
:106A6000DBB200E000238DF802309DF80330022BEA
:106A70000FD0022B23DC002B16D0012B1FD1144981
:106A8000019A13465B0013440B449DF802201A70D0
:106A90001AE00F49019A13465B0013440B4401337B
:106AA0009DF802201A700FE00949019A13465B0015
:106AB00013440B4402339DF802201A7004E00723AC
:106AC000039301E007230393039B184604B0704728
:106AD0007423002000B583B0012200210020FFF7BD
:106AE000A7FF0190019B002B04D0019B072B01D035
:106AF000019B1CE0072202210120FFF799FF019072
:106B0000019B002B04D0019B072B01D0019B0EE0C1
:106B1000042202210020FFF78BFF0190019B002B34
:106B200004D0019B072B01D0019B00E000231846F5
:106B300003B05DF804FB00B583B001220221002000
:106B4000FFF776FF0190019B002B04D0019B072BE0
:106B500001D0019B1CE0072202210120FFF768FF02
:106B60000190019B002B04D0019B072B01D0019BBE
:106B70000EE00A2200210020FFF75AFF0190019B3E
:106B8000002B04D0019B072B01D0019B00E00023C8
:106B9000184603B05DF804FB00B585B00190009184
:106BA000019B1B88102B02D0112B18D02FE01A4B01
:106BB0001B68002B0DD1FFF78DFF0390039B002B6B
:106BC00007D0164B1B68002B03D0144B1B6803988F
:106BD0009847114B1B6801330F4A136017E00E4BA7
:106BE0001B68013B0C4A13600B4B1B68002B0DD13B
:106BF000FFF7A1FF0390039B002B07D0074B1B68F7
:106C0000002B03D0054B1B680398984700BF00BFBB
:106C100005B05DF804FB00BFAC230020A8230020D2
:106C200000B583B0002100200FF0E8F80190019B2F
:106C3000184603B05DF804FB00B583B00FF056F9B9
:106C40000190019B184603B05DF804FB84B00190ED
:106C5000019B002B0BD0019B002B13DC019B13F13C
:106C6000380F07D0019B13F1360F07D00AE000233D
:106C700003930BE048F21153039307E048F21453D7
:106C8000039303E048F21653039300BF039B184697
:106C900004B0704700B585B003900291019201994C
:106CA00002980AF023FE0023184605B05DF804FBA5
:106CB00000B589B003900291039B04330793002031
:106CC0000AF03CFD0690069B002B01D0069B10E0CD
:106CD00007980DF0CEFD0023009300230022074902
:106CE00007980DF00BFE05900598FFF7AFFF069093
:106CF000069B184609B05DF804FB00BF956C0200C6
:106D000000B585B00190019B0433039303980DF007
:106D10000AFE0AF059FD0023184605B05DF804FB91
:106D200000B587B00390029101928DF80330039B68
:106D300004330593019A029905980EF046F80490E1
:106D40000498FFF783FF0346184607B05DF804FB7D
:106D500000B587B00390029101920093039B043326
:106D60000593009A019905980DF03EFF0490049850
:106D7000FFF76CFF0346184607B05DF804FB000000
:106D80002DE9F04F91B0099000238DF83F30A6E037
:106D9000594B1A689DF83F30DB0013440E930E9B4D
:106DA0001B781C464FF001024FF00003A4F12001B4
:106DB000C4F1200003FA04FB02FA01F14BEA010BD3
:106DC00022FA00F04BEA000B02FA04FACDE90CAB10
:106DD0004A4BD3E90001DDE90C2300EA02040094E8
:106DE0000B400193DDE90034234373D0DDE90C232C
:106DF000D1430291DB430393404BD3E90023DDE908
:106E0000024521461140049129460B4005933B4B16
:106E1000DDE90412C3E900120E9B1B7818460BF043
:106E200083FC03468DF82F300E9B1B781C464FF0D9
:106E300001024FF00003A4F12001C4F1200003FA85
:106E400004F702FA01F10F4322FA00F0074302FAB5
:106E500004F62B4BD3E9002306EA020106913B40DE
:106E600007939DF82F004FF000010E9B1B781C46E6
:106E7000A4F12003C4F1200201FA04F900FA03F39B
:106E800049EA030920FA02F249EA020900FA04F881
:106E9000DDE906344C4508BF43451BD19DF82F2042
:106EA0000E9B5B78012B0CBF01230023DBB29A42BF
:106EB0000CBF01230023DBB20A930E9B5B68002BFF
:106EC00008D00E9B5C680E9B1A780A9BDBB21946B1
:106ED0001046A0479DF83F3001338DF83F30094BF5
:106EE0001A789DF83F309342FFF452AF00BF00BFC5
:106EF00011B0BDE8F08F00BFB0230020E8230020D0
:106F0000E0230020B42300202DE9704F90B00B90B7
:106F10000B468DF82B304FF001024FF000030B9E13
:106F2000A6F12001C6F1200003FA06F502FA01F1EC
:106F30000D4322FA00F0054302FA06F4CDE90E45AE
:106F4000384B184601F01AF90D900D9B002B64D1B7
:106F5000354BD3E90001DDE90E2300EA0204009479
:106F60000B400193DDE90034234341D10B980BF032
:106F7000DBFB0346002B0FD02C4BD3E90001DDE9EE
:106F80000E2340EA020402940B430393274BDDE9EE
:106F90000212C3E9001213E0DDE90E236FEA020AD0
:106FA0006FEA030B214BD3E900230AEA02010491A3
:106FB0000BEA030305931D4BDDE90412C3E900123C
:106FC000194BD3E90001DDE90E2340EA02040694DF
:106FD0000B430793144BDDE90612C3E90012114875
:106FE000134B1B680022194601F096F80D9015E02E
:106FF000DDE90E236FEA02086FEA03090A4BD3E9C1
:10700000002308EA0201089109EA03030993064BE9
:10701000DDE90812C3E9001200E000BF10B0BDE8CE
:10702000708F00BFBC230020E8230020E023002055
:10703000B823002000B58BB003900B4601928DF869
:107040000B30019B042B01D807235AE00BF05EFAAA
:10705000034683F00103DBB2002B09D00BF004FAE6
:107060000990099B0893089B002B01D0089B48E0DE
:10707000264A039B1360264A9DF80B301370254A5D
:10708000019B136024494FF000024FF00003C1E957
:10709000002322494FF000024FF00003C1E9002312
:1070A00022E09DF80B30DB00039A1344079305ABF5
:1070B00000210A461A800A469A7003238DF814307C
:1070C000079B9B788DF81530079B1B78184605ABFE
:1070D000134A19460BF026FA0990099B0693069B62
:1070E000002B01D0069B0CE09DF80B305A1E8DF84A
:1070F0000B20002BD5D10B4A00210B4800F0DCFF00
:10710000034618460BB05DF804FB00BFB023002017
:10711000B4230020B8230020E0230020E82300202F
:10712000096F0200816D02005CB9030000B583B0F5
:10713000114B1B68002B03D11049BA200EF0D8FF69
:10714000002301930CE00C4B1A68019BDB001344F5
:107150001B78012118460BF05FFA019B0133019364
:10716000074B1B781A46019B9342ECD30023184629
:1071700003B05DF804FB00BFB023002060B903003A
:10718000B423002086B003900291019201238DF870
:1071900017309DF81730214A039B13601F4A029B4A
:1071A00053601E4A019B9360039B44F20102934289
:1071B00013D0039B44F20202934221D1019B174A50
:1071C000D360164BDB681B881A46144B9A61134B2D
:1071D000DB685B68114AD36112E0019B0F4A1361BF
:1071E0000E4B1B699B680D4A53610C4B1B691B6856
:1071F0000A4A9361094B1B695B68084AD36100BF67
:1072000072B600BF00BF9DF81730DBB2002BFAD179
:1072100062B600BF00BF06B0704700BFF023002079
:1072200000B583B002900091019244F201007146D2
:107230006A4600F003F803B000BD00BF00B587B098
:1072400003900291019272B600BF039B44F20202C6
:10725000934217D0039B44F20202934218D8039B37
:1072600044F20102934210D0039B44F20102934284
:107270000ED8039B012B0DD0039B41F201029342D8
:107280000AD005E0019B059307E0019B049304E00D
:1072900000BF02E000BF00E000BF084B1B6803F026
:1072A0000103002B00D000BE019A02990398FFF75A
:1072B00069FF00BF07B05DF804FB00BFF0ED00E020
:1072C00082B00190019B03F00303002B0CBF01234C
:1072D0000023DBB2184602B07047000082B00346BC
:1072E0008DF807309DF807309AB2064B1B889A42FA
:1072F00004D29DF807300133DBB200E000231846CA
:1073000002B070471C24002000B583B00B4B1B78E3
:107310008DF807300A4B1B78DBB21846FFF7DEFF0B
:1073200003461A469DF8073093420CBF0123002301
:10733000DBB2184603B05DF804FB00BF1824002040
:107340001924002082B0084B1B788DF80730074BBA
:107350001B78DBB29DF807209A420CBF0123002363
:10736000DBB2184602B07047182400201924002010
:1073700000B585B003460092ADF806300B46ADF877
:107380000430BDF8043001339BB2DB00ADF80E30A1
:107390000098FFF795FF034683F00103DBB2002B53
:1073A00001D0072317E00E4A009B1360BDF80E3092
:1073B000009A13440B4A13600B4B00221A700B4BBC
:1073C00000221A700A4ABDF806301380094ABDF837
:1073D000043013800023184605B05DF804FB00BF9D
:1073E0001024002014240020192400201824002038
:1073F0001A2400201C24002000B587B003900B46FF
:107400000192ADF80A30374B1B88BDF80A209A422A
:1074100060D84FF6FF73ADF8123000238DF81130AD
:107420000DF11103184600F053FFFFF76DFF0346FF
:10743000002B0ED12C4B1B78DBB2ADF812302A4B4F
:107440001B78DBB21846FFF749FF03461A46264B66
:107450001A709DF81130184600F050FFBDF8123038
:107460004FF6FF72934232D0204B1A68BDF81230AB
:10747000DB001344019A1A60039B002B1CD0BDF85B
:107480000A30002B18D01A4B1B68BDF81220154982
:10749000098801FB02F21344BDF80A20039918463B
:1074A00012F0BFFA114B1A68BDF81230DB0013441A
:1074B000BDF80A209A8007E00C4B1A68BDF812301C
:1074C000DB00134400229A800023059304E0042388
:1074D000059301E009230593059B184607B05DF865
:1074E00004FB00BF1A2400201924002010240020CF
:1074F00014240020002318467047000000B585B012
:107500002FE0204B1B78DBB2ADF80E301E4B1B6812
:10751000BDF80E201D49098801FB02F213440293B5
:107520001B4B1A68BDF80E30DB0013449B88ADF886
:107530000630174B1A68BDF80E30DB0013441B6889
:107540000093BDF80620009B1146029898470D4B0A
:107550001B78DBB21846FFF7C1FE03461A46094BFB
:107560001A70FFF7C7FF034683F00103DBB2002B5D
:1075700004D0FFF7E7FE0346002BC2D000BF05B0E2
:107580005DF804FB18240020142400201A24002095
:107590001024002082B003468DF807309DF8073094
:1075A00003F01F0205499DF907305B09012000FA2D
:1075B00002F241F8232000BF02B0704700E100E072
:1075C00082B003468DF807309DF8073003F01F02A4
:1075D00006499DF907305B09012000FA02F22033C9
:1075E00041F8232000BF02B0704700BF00E100E077
:1075F00082B003468DF807309DF8073003F01F0274
:1076000006499DF907305B09012000FA02F2403378
:1076100041F8232000BF02B0704700BF00E100E046
:1076200082B003468DF807309DF8073003F01F0243
:1076300006499DF907305B09012000FA02F2603328
:1076400041F8232000BF02B0704700BF00E100E016
:1076500082B0034600918DF807309DF90730002B6A
:107660000CDA009BDAB20C499DF8073003F00F03E7
:10767000043B5201D2B20B441A7609E0009BDAB205
:1076800006499DF907305201D2B20B4483F800231A
:1076900000BF02B0704700BF00ED00E000E100E075
:1076A00000B585B00190019B002B0AD0074B43F039
:1076B00001030393019B9B010293039B029898474C
:1076C00000E000BF05B05DF804FB00BFA0BA0300F6
:1076D00000B583B00190064A019BC2F80835072126
:1076E0001120FFF7B5FF00BF03B05DF804FB00BF3A
:1076F0000010014008B50D4B4FF48032C3F844230D
:107700000A4B4FF48032C3F804231120FFF788FF9F
:107710001120FFF73FFF054B01221A602F20FFF7D2
:10772000BFFF034B01221A7000BF08BD00100140CB
:107730003E25002008B51120FFF742FF0E4B4FF405
:107740008032C3F848230C4B4FF48032C3F808232F
:10775000094B01225A602F20FFF7A2FF064B01229E
:107760009A60064B00221A602F20FFF799FF044B06
:1077700000221A7000BF08BD001001403025002013
:107780003E250020024BD3F804351846704700BF51
:107790000010014082B001900091019A009BD31A21
:1077A00023F07F43184602B07047000082B001907A
:1077B000034A019BC2F8403500BF02B0704700BFCA
:1077C0000010014086B00190284B1B68002B03D1AC
:1077D000264A019B136045E0019B1A68234B1B68F6
:1077E0001B689A4210D8214B1B681968019B1A68C4
:1077F0001E4B1B688A1A1A601C4B1A68019BDA61BF
:107800001A4A019B13602DE0019B1B680393174BE1
:107810001B680593154B1B68049309E0049B1B68C8
:10782000039AD31A0393049B0593049BDB69049387
:10783000049B002B04D0049B1B68039A9A42EDD84A
:10784000049B002B05D0049B1A68039BD21A049B4F
:107850001A60019B039A1A60019B049ADA61059BE6
:10786000019ADA6100BF06B0704700BF2C250020E6
:1078700000B587B001902A4B1B680393284B1B6807
:107880000593059B049308E0049A019B9A4208D053
:10789000049B0593049BDB690493049B002BF3D1A9
:1078A00000E000BF049B002B01D1002333E0059AC8
:1078B000049B9A4214D11A4B1B68DB69184A136067
:1078C000174B1B68002B0BD1164B01229A60164BED
:1078D00000221A60154B01221A702F20FFF7E0FEDC
:1078E000049B1B680293049BDA69059BDA61059B84
:1078F000DB690493049B002B05D0049B1A68029B50
:107900001A44049B1A60064B1B68039A9A4214BFE0
:1079100001230023DBB2184607B05DF804FB00BF6B
:107920002C25002000100140302500203F2500209C
:1079300008B51120FFF75CFE00BF08BD08B5142094
:10794000FFF756FE00BF08BD00B585B001900B469D
:10795000ADF80230BDF80230082B0CBF0123002324
:10796000DBB20393039B002B05D1094A40F273114C
:107970000020FFF755FC019B0293029B1B68029AB3
:1079800052681046984700BF05B05DF804FB00BF81
:10799000FCB9030000B587B00190019B5B690293BD
:1079A000019B9B69039302AB0A4A08211846FFF723
:1079B00023FD0590059B0493049B002B05D0064AEC
:1079C00040F287110498FFF72BFC00BF07B05DF869
:1079D00004FB00BF49790200FCB9030000B585B083
:1079E0002B4B1B68002B4ED000230193FFF7CAFEE0
:1079F0000246284B1B6819461046FFF7CBFE029043
:107A0000234B1B6803931DE0039B1B68029A9A4259
:107A10001CD3039B1B68029AD31A0293039B1B6817
:107A2000019A13440193039B0093039BDB69039327
:107A3000009B1B7C002B05D0009B00221A74009831
:107A4000FFF7A8FF039B002BDED100E000BF124B25
:107A50001A78124B1B789A420CD1104B1B780133C9
:107A6000DAB20E4B1A700D4B1B78022B02D10B4B66
:107A700000221A70094B1B781946094A019B42F8EB
:107A80002130FFF75BFF00BF05B05DF804FB00BFCE
:107A90002C250020302500203C2500203D250020FD
:107AA0003425002082B00190184B1A78184B1B78AF
:107AB0009A4223D0154B1B780133DAB2134B1A705C
:107AC000124B1B78022B02D1104B00221A700F4B65
:107AD0001B781A460F4B53F82220019B1A60019B1A
:107AE0001A680D4B1B6813440B4A13600A4B1B6842
:107AF00023F07F43084A1360012303E0019B002227
:107B00001A600023184602B0704700BF3C250020D1
:107B10003D250020342500203025002088B003902A
:107B2000029101920023079338E0204B1B680693D3
:107B3000069B1B68039A9A4206D2069B1A68039B0F
:107B4000D21A069B1A602EE0069B1B68039AD31A72
:107B50000393069B1B68079A13440793069B002216
:107B60001A60124B1B680593069BDB690F4A136072
:107B7000069BDB68002B11D0029A079B134423F06D
:107B80007F42069B5A60069BDA68069B9A60019BBF
:107B90001A68069BDA61019B059A1A60034B1B6801
:107BA000002BC2D100BF00BF08B070472C250020B9
:107BB00000B589B0019000238DF81F30664B1B681B
:107BC0000593AAE0019B002B05D0019B0693069B21
:107BD000DB69019361E0614B1B781A4613465B0039
:107BE0001344DB005D4A1344043304935B4B1B785E
:107BF0000133DAB2594B1A70584B1A78574B9B78AD
:107C00009A4202D1554B00221A70049B5B6806937E
:107C1000049B1B78032B1ED0032B7EDC012B1FD073
:107C2000022B7AD1049B5B681846FFF721FE0346BE
:107C3000002B02D001238DF81F30069B00221A74FE
:107C40006BE0454B1B680393039B00221A74039B54
:107C5000DB69414A1360404B1B68002BF1D15CE0AB
:107C600000BF069B1B7C002B00D056E0049B9A684B
:107C7000069B5A60049BDA68069B9A60049B1A690B
:107C8000069BDA60049B5A69069B9A61344B1B7809
:107C9000002B02D0069B00225A60069B5A68314B8B
:107CA0001B68D31A23F07F432F4A93420ED8069BBA
:107CB0005B682C4A126811461846FFF76BFD0246B6
:107CC000069B9B681A44069B1A6017E0254B1A68AE
:107CD000069B5B6819461046FFF75CFD0290069B09
:107CE0009B68029A9A4206D2069B9A68029BD21A15
:107CF000069B1A6002E0069B00221A60069B002287
:107D00005A60069B00229A60069B01221A74069B09
:107D10000022DA610698FFF755FD019B002B7FF4E6
:107D200051AF0E4B1A780D4B5B789A427FF44AAFF5
:107D30009DF81F30002B04D1074B1B68059A9A420F
:107D400001D0012300E0002303F00103DBB2184659
:107D500009B05DF804FB00BF2C2500202024002082
:107D60003F25002030250020FEFF7F0010B588B0A1
:107D70000190254B1B68002B43D0234B1B681B68CD
:107D80000793FFF7FFFC0690204B1B6805930599AE
:107D90000698FFF7FFFC0346033304931C4B1B7844
:107DA00083F00103DBB2002B01D0FFF7A3FC049AA0
:107DB000079B934238BF1346059A13440593059BCE
:107DC00023F07F4305930598FFF7F0FCFFF7DAFCFB
:107DD000039006990398FFF7DDFC0346DC1C069927
:107DE0000598FFF7D7FC03469C420AD9FFF7CAFC67
:107DF00003461846FFF7DAFC2F20FFF751FCFFF788
:107E000097FD00BF08B010BD2C25002030250020B4
:107E10003E25002000B587B00023019300238DF894
:107E20001730194B1B680493184B1B6803936B4660
:107E30001846FFF737FE03468DF80B309DF80B30E0
:107E4000002B08D0009B01AA04991846FFF766FE94
:107E500001238DF81730019B1846FFF7A9FE034652
:107E6000002B02D001238DF817309DF81730002B1E
:107E700002D00398FFF77AFF054B00221A7000BF6B
:107E800007B05DF804FB00BF302500202C25002042
:107E90003F25002082B003468DF80730034A9DF845
:107EA0000730537000BF02B0704700BF202400208D
:107EB00084B00190144B5B7801338DF80F30124B76
:107EC0009B789DF80F209A4202D100238DF80F3045
:107ED0000D4B1B789DF80F209A4201D100230FE033
:107EE000019B9DF80F201A70074B5B781A461346CA
:107EF0005B001344DB00044A134404330293029BE7
:107F0000184604B0704700BF2024002000B589B097
:107F100003900291019200930023079300238DF8B0
:107F200016300DF11603184600F0D2F90DF11703C3
:107F30001846FFF7BDFF0690069B002B02D10423D5
:107F4000079318E0069B01221A70069B039A5A6059
:107F5000FFF718FC0246069B9A60069B029ADA60BD
:107F6000069B019A1A61069B009A5A619DF8173088
:107F70001846FFF78FFF9DF81630184600F0BEF93F
:107F8000079B002B01D1FFF7D9FC079B184609B0CE
:107F90005DF804FB00B587B001900B468DF8033007
:107FA0000023059300238DF80E300DF10E031846C3
:107FB00000F08EF90DF10F031846FFF779FF0490DA
:107FC000049B002B02D1042305930BE0049B9DF836
:107FD00003201A70049B019A5A609DF80F301846CE
:107FE000FFF758FF9DF80E30184600F087F9059B03
:107FF000002B01D1FFF7A2FC059B184607B05DF8E6
:1080000004FB000008B50E4B0022C3F840210C4BC6
:108010000022C3F844210A4B0022C3F84821084B30
:108020000022C3F84C21064B0022C3F80021044B68
:108030000022C3F80421FFF7D1FC00BF08BD00BF38
:108040000010014008B5FFF7E5FE00BF08BD0000C5
:1080500008B5FFF76FFB134B00221A70114B00227B
:108060005A70104B0B229A700F4B00221A600F4B64
:1080700000221A700E4B00221A701420FFF7D0FA5B
:1080800007211420FFF7E4FA1420FFF783FA0020F9
:10809000FFF71EFBFFF776FB0346064A136000233B
:1080A000184608BD202400202C2500203C25002057
:1080B0003D2500203025002086B003900B4601921C
:1080C0008DF80B30134B9B78002B01D108231EE059
:1080D000019B002B01D1072319E0039B002B01D149
:1080E000072314E0039B1B681B7C002B01D0082393
:1080F0000DE0039B1B680593059B00221A74059BEA
:108100009DF80B205A74059B019A5A61002318466A
:1081100006B070472024002000B587B0039002917C
:108120000192039B0593144B9B78002B01D10823EC
:108130001EE0039B002B01D1082319E0029B042BB6
:1081400001D8072314E0059B5B69002B01D10823AC
:108150000EE0059B5B7C012B01D1029B00E000231C
:108160000493019B049A02990598FFF7CFFE0346FA
:10817000184607B05DF804FB2024002000B585B048
:108180000190019B03930D4B9B78002B01D1082399
:1081900010E0019B002B03D0039B5B69002B01D1F6
:1081A000082307E0039B00221A7402210398FFF7BB
:1081B000F1FE0346184605B05DF804FB20240020BC
:1081C00008B5FFF7DFFA0346184608BD00B583B0CF
:1081D0000190009100990198FFF7DCFA03461846D8
:1081E00003B05DF804FB82B0EFF310830093009BB3
:1081F000019372B600BF019B184602B0704762B689
:1082000000BF00BF7047000000B585B00190FFF7C8
:10821000EAFF0390164B9B68002B1BD1144B0122E5
:108220009A60144BD3F88020134B1340104A13600C
:10823000104B114AC3F880200E4BD3F884300C4AFF
:1082400053600C4B4FF0FF32C3F88420019B002297
:108250001A7002E0019B01221A70039B002B01D1CE
:10826000FFF7CDFF0023184605B05DF804FB00BF03
:108270004025002000E100E0FC06FFBD00B585B010
:1082800003468DF80730104B9B68002B16D09DF8E5
:108290000730002B12D1FFF7A6FF03900B4A0A4BC1
:1082A0001B681360094A084B5B685360064B002249
:1082B0009A60039B002B01D1FFF7A1FF0023184612
:1082C00005B05DF804FB00BF4025002000E100E0A0
:1082D00000B583B0019000F02BF80346012B03D0CA
:1082E000054943200DF004FF0198FFF78DFF00BF03
:1082F00003B05DF804FB00BFA8BA030000B583B06B
:1083000003468DF8073000F013F80346012B03D025
:10831000064951200DF0ECFE9DF807301846FFF796
:10832000ADFF00BF03B05DF804FB00BFA8BA0300B7
:1083300084B0EFF305830193019BC3F30803039318
:10834000039B002B0DD1EFF314830093009B02934A
:10835000029B03F00103002B0CBF01230023DBB2BF
:1083600000E00123184604B0704786B003900291E4
:10837000019200930023059310E0029A059B134499
:108380001978019A059B13441A780398059B0344B6
:108390004A40D2B21A70059B01330593059A009B9F
:1083A0009A42EAD300BF00BF06B0704700B589B05B
:1083B00007900691059204930C9B03930B9B0293E9
:1083C0000B9B01930A9B0093049B059A06990798BF
:1083D00000F004F800BF09B05DF804FB00B58BB0F5
:1083E0000390029101920093009B0993039B002B41
:1083F00004D0029B1B68019A9A4201D8FDF778FFCE
:10840000009B002B04D10C9B002B01D0FDF770FFCB
:108410000D9B002B02D00F9B002B01D1FDF768FFB5
:10842000029B1B68002B54D00C9B002B51D0029B4D
:108430001B68019AD31A08930C9A089B934228BF91
:1084400013460793029B1B68039A1344079A0999E2
:10845000184611F0E6FA099A079B134409930C9AFF
:10846000079BD31A0C93029B1A68079B1A44029B22
:108470001A60029B1B68019A9A422AD10C9B002B1E
:1084800004D10E9B03990F98984703E00D9B039925
:108490000F989847029B00221A601AE0029B1B6803
:1084A000002B01D0FDF724FF0C9A019B9A4204D1C6
:1084B0000E9B09990F98984703E00D9B09990F9817
:1084C0009847099A019B134409930C9A019BD31A6C
:1084D0000C930C9A019B9A42E0D228E0029B1B6805
:1084E000019AD31A06930C9A069B934228BF13460F
:1084F0000593029B1B68039A1344059A0999184631
:1085000011F08FFA099A059B134409930C9A059B65
:10851000D31A0C93029B1A68059B1A44029B1A609B
:10852000029B1B68019A9A4201D8FDF7E1FE0C9B61
:10853000002BD3D100BF00BF0BB05DF804FB00B52A
:1085400089B00390029101920093009B07930A9BCC
:108550000693039B002B04D0029B1B68019A9A424E
:1085600001D8FDF7C5FE009B002B04D10B9B002B0F
:1085700001D0FDF7BDFE0C9B002B02D00D9B002B04
:1085800033D1FDF7B5FE30E0029B1B68002B06D10E
:108590000C9B03990D989847029B019A1A60029BC5
:1085A0001B68019AD31A0593029B1B680B9A93428E
:1085B00028BF13460493039A059B1A44049B07990A
:1085C0000698FFF7D2FE029B1A68049BD21A029B00
:1085D0001A600B9A049BD31A0B93069A049B1344BC
:1085E0000693079A049B134407930B9B002BCBD154
:1085F00000BF00BF09B05DF804FB00B589B003906F
:10860000029101928DF803300023079337E0029B1B
:108610001B680693019A069BD31A0A9A934228BFB5
:1086200013460593079B002B08D1039A069B13441E
:108630009DF80310059A184611F01CFA069B002BB2
:1086400005D1059A019B9A4201D101230793069A0D
:10865000059B1344019A9A4207D10B9B03990C98EE
:108660009847029B00221A6005E0029B1A68059B4E
:108670001A44029B1A600A9A059BD31A0A930A9B12
:10868000002BC4D100BF00BF09B05DF804FB00B5EA
:1086900089B00790069105928DF813300C9B022B40
:1086A0001FD00C9B022B38D80C9B002B76D00C9B38
:1086B000012B32D19DF813209DF82C305340DBB2B2
:1086C0008DF813300DF113020E9B02930D9B019355
:1086D000012300931346059A06990798FFF766FE53
:1086E0005DE00DF113020E9B02930D9B019301239C
:1086F00000931346059A06990798FFF757FE0BAAB1
:108700000E9B02930D9B0193012300931346059A40
:1087100006990798FFF74AFE41E00DF113020E9B00
:1087200002930D9B0193012300931346059A06992A
:108730000798FFF73BFE9DF82C309DF828209A42C1
:108740001CD00C9B023B9DF828100E9A02920D9AA9
:10875000019200930B46059A06990798FFF74DFF83
:108760000BAA0E9B02930D9B0193012300931346CA
:10877000059A06990798FFF719FE10E00C9B013B3C
:108780009DF828100E9A02920D9A019200930B46C2
:10879000059A06990798FFF730FF00E000BF00BF79
:1087A00009B05DF804FB00B583B001900091009B17
:1087B000002B06D0009A0021019811F05BF9019B73
:1087C0001B7800BF03B05DF804FB86B003900291F4
:1087D000019200930023059310E0029A059B134435
:1087E0001978019A059B13441A780398059B034452
:1087F0004A40D2B21A70059B01330593059A009B3B
:108800009A42EAD300BF00BF06B0704700B58DB0F2
:10881000039002910192029B1B68102B01D0FDF77F
:1088200067FD28210398FFF7BEFF029B1A6808AB7B
:1088300011461846FFF7B7FF029B5B6808AA08A914
:108840000198984704AA08AB1146184606F09CFB0D
:1088500004AA04AB1146184606F0C2FB039B03F1C1
:10886000080204AB1146184606F065FB04AA04ABE7
:108870001146184606F0B4FB039B03F1180204AB43
:108880001146184606F057FB039B029A1A60039B99
:10889000019A5A6000BF0DB05DF804FB00B585B0C9
:1088A000039002910192039B019A02991846FFF7E7
:1088B000ADFF039800F004F800BF05B05DF804FBBD
:1088C00000B587B001900023029303AB00221A6029
:1088D0005A609A60019B03F12800019B1968019B73
:1088E0005A6802AB06F073FD019B40331021184615
:1088F000FFF759FF019B00221A65019B00225A6570
:10890000019B00229A6500BF07B05DF804FB00B52B
:1089100089B001900091019B0793079B03F1280008
:1089200003AA0123009906F06BFD079B5A6D079B74
:108930001B681B681A44079B5A6500BF09B05DF8A5
:1089400004FB00B58DB0039002910192039B1B685C
:108950001B6808A8019A0299FFF737FF039B03F1F0
:10896000280004AA08A9012306F04AFD039B5A6DBA
:10897000039B1B681B681A44039B5A6500BF0DB01C
:108980005DF804FB00B585B001900091019B039355
:10899000039B08331A4600990398FFF7D2FF039B05
:1089A00001229A6500BF05B05DF804FB00B585B0F3
:1089B00001900091019B0393039B18331A46009981
:1089C0000398FFF7BEFF039B01229A6500BF05B025
:1089D0005DF804FB00B591B00990089107920693E9
:1089E000099B1B681B680D93354B0F9300230E9357
:1089F000069B002B33D0099B1A6D079B134403F091
:108A00000F03002B0CBF01230023DBB20C93079B49
:108A1000002B09D1099B1B6D002B05D1099B5B6DB8
:108A2000002B01D1012300E000230B93099B9B6DD8
:108A3000002B01D0FDF75CFC079B002B04D10B9BA6
:108A4000002B01D1FDF754FC0C9B002B05D00B9B98
:108A5000002B02D11B4B0F9301E001230E93099BC6
:108A600003F14000099B03F15001099B03930F9B05
:108A70000293134B0193079B0093089B0D9AFFF7FA
:108A8000ADFC0E9B002B16D0099B03F14000099B07
:108A900003F15001099B1B6D0D9AD31A099A049298
:108AA000094A039202930023019300230093802339
:108AB0000D9AFFF7ECFD00BF11B05DF804FB00BF9D
:108AC0000F89020085890200AD89020000B583B0DC
:108AD00001900091019B9B6D002B01D1FDF708FCDB
:108AE000019B03F13001019B1B681B681A4600982B
:108AF00010F097FF00BF03B05DF804FB00B583B032
:108B000001900091009B002B06D0009A0021019853
:108B100010F0B0FF019B1B7800BF03B05DF804FBB1
:108B200082B001900091019A009B62FA03F318460B
:108B300002B0704782B001900091019A009BC3F18E
:108B4000200362FA03F3184602B0704782B0019026
:108B5000019B1B781A06019B01331B781B041A43E7
:108B6000019B02331B781B021343019A03321278D4
:108B70001343184602B0704782B001900091019BE8
:108B8000190E009B5A1C0092CAB21A70019B190C54
:108B9000009B5A1C0092CAB21A70019B190A009BD2
:108BA0005A1C0092CAB21A70019BDAB2009B1A706A
:108BB00000BF02B0704784B001900091019A009B01
:108BC00053400393039BDBB2DB43DAB2039BDBB27C
:108BD000013BDBB213408DF80B309DF90B30DB11FC
:108BE0005BB2DBB2184604B0704700B589B00390A1
:108BF00002910192009300238DF81F3000238DF81D
:108C00001E3000238DF81D3000238DF81C3000230A
:108C1000069378E00A9A069B13441B788DF8173068
:108C2000039B1B7806991846FFF7C5FF03468DF88E
:108C300016309DF91630DB435AB29DF91F301340B0
:108C40005AB29DF817109DF816300B40DBB25BB29C
:108C500013435BB28DF81F30029B1B7806991846B0
:108C6000FFF7A9FF03468DF816309DF91630DB4358
:108C70005AB29DF91E3013405AB29DF817109DF854
:108C800016300B40DBB25BB213435BB28DF81E3083
:108C9000019B1B7806991846FFF78DFF03468DF858
:108CA00016309DF91630DB435AB29DF91D30134042
:108CB0005AB29DF817109DF816300B40DBB25BB22C
:108CC00013435BB28DF81D30009B1B780699184644
:108CD000FFF771FF03468DF816309DF91630DB4320
:108CE0005AB29DF91C3013405AB29DF817109DF8E6
:108CF00016300B40DBB25BB213435BB28DF81C3015
:108D0000069B01330693069A0B9B9A4282D3039BE0
:108D10009DF81F201A70029B9DF81E201A70019B5F
:108D20009DF81D201A70009B9DF81C201A7000BF32
:108D300009B05DF804FB10B586B003900291039B67
:108D40001B0EDBB28DF81730039B1B0CDBB28DF8CA
:108D50001630039B1B0ADBB28DF81530039BDBB288
:108D60008DF8143005AC0DF115020DF116010DF161
:108D700017004FF480730193029B00932346FFF783
:108D800034FF9DF817301A069DF816301B041A435D
:108D90009DF815301B0213439DF814201343184609
:108DA00006B010BD10B58CB003900291019204235F
:108DB0000793019B9B080693039B1B685A1C079B08
:108DC00002FB03F30593039B0433049300230B93EB
:108DD0000FE00B9B9B00029AD1180B9B9B00049AFF
:108DE000D4180846FFF7B2FE034623600B9B0133FD
:108DF0000B930B9A069B9A42EBD301230A93002311
:108E0000099345E00B9B03F18043013B9B00049ACF
:108E100013441B680893099A069B9A4204D10A9B43
:108E200001330A9300230993099B002B11D10821D8
:108E30000898FFF77FFE034619491846FFF77BFFA6
:108E4000024618490A9B0B441B781B0653400893A3
:108E50000AE0069B062B07D9099B042B04D1104975
:108E60000898FFF768FF08900B9A069BD31A9B009F
:108E7000049A134419680B9B9B00049A1344089AA4
:108E80004A401A600B9B01330B93099B01330993F2
:108E90000B9A059B9A42B5D300BF00BF0CB010BD22
:108EA0004CBB03004CBC030000B585B0039002919D
:108EB0000192F4220021039810F0DCFD019B202B8D
:108EC0001BD0019B202B21D8019B102B03D0019B91
:108ED000182B09D01AE0039B0A221A60019A029902
:108EE0000398FFF75FFF14E0039B0C221A60019ABE
:108EF00002990398FFF756FF0BE0039B0E221A60BE
:108F0000019A02990398FFF74DFF02E0FDF7F0F98F
:108F100000BF00BF05B05DF804FB82B00190009176
:108F2000019B1A68009B1B685A40019B1A60019BB9
:108F300004331968009B04331A68019B04334A40C8
:108F40001A60019B08331968009B08331A68019B5B
:108F500008334A401A60019B0C331968009B0C339C
:108F60001A68019B0C334A401A6000BF02B0704778
:108F700010B582B00190019B1B6816491846FFF797
:108F8000DAFE0246019B1A60019B04331A68019BBA
:108F90001C1D10491046FFF7CEFE03462360019BBF
:108FA00008331A68019B03F108040A491046FFF7C9
:108FB000C2FE03462360019B0C331A68019B03F138
:108FC0000C0404491046FFF7B6FE0346236000BFB9
:108FD00002B010BD4CBB030086B00190019B1B6822
:108FE0001B0E1A06019B04331B681B0C1B0403F4A5
:108FF0007F031A43019B08331B681B0A1B029BB2A9
:109000001A43019B0C331B68DBB213430593019B8E
:1090100004331B681B0E1A06019B08331B681B0CCC
:109020001B0403F47F031A43019B0C331B681B0AC8
:109030001B029BB21A43019B1B68DBB213430493D0
:10904000019B08331B681B0E1A06019B0C331B681F
:109050001B0C1B0403F47F031A43019B1B681B0AB0
:109060001B029BB21A43019B04331B68DBB2134300
:109070000393019B0C331B681B0E1A06019B1B6894
:109080001B0C1B0403F47F031A43019B04331B686E
:109090001B0A1B029BB21A43019B08331B68DBB2FD
:1090A00013430293019B059A1A60019B0433049AAF
:1090B0001A60019B0833039A1A60019B0C33029AD1
:1090C0001A6000BF06B0704782B00190019B5B0040
:1090D00003F0FE31019BDB0903F0013213465B0014
:1090E0001344DA0013444B40184602B0704710B5E1
:1090F00084B001900198FFF7E7FF0390019A039B6A
:10910000534018211846FFF70BFD0246039B82EAE5
:10911000030410210198FFF703FD03465C4008217A
:109120000198FFF7FDFC03466340184604B010BDEC
:1091300010B582B00190019B1B681846FFF7D7FF5E
:109140000246019B1A60019B04331A68019B1C1D97
:109150001046FFF7CCFF03462360019B08331A68D3
:10916000019B03F108041046FFF7C1FF034623608B
:10917000019B0C331A68019B03F10C041046FFF7A6
:10918000B6FF0346236000BF02B010BD00B58BB030
:10919000039002910192039B1B680A2B09D0039B49
:1091A0001B680C2B05D0039B1B680E2B01D0FDF711
:1091B0009FF80298FFF7CAFC03460493029B04330E
:1091C0001846FFF7C3FC03460593029B0833184675
:1091D000FFF7BCFC03460693029B0C331846FFF7CF
:1091E000B5FC03460793039B0433099304AB099929
:1091F0001846FFF792FE099B103309930123089349
:1092000016E004AB1846FFF7B3FE04AB1846FFF7B1
:10921000E3FE04AB1846FFF78BFF04AB0999184631
:10922000FFF77BFE099B10330993089B01330893DA
:10923000039B1B68089A9A42E3D304AB1846FFF7D6
:1092400097FE04AB1846FFF7C7FE04AB0999184612
:10925000FFF763FE049B01991846FFF78DFC059A02
:10926000019B043319461046FFF786FC069A019BC2
:10927000083319461046FFF77FFC079A019B0C3311
:1092800019461046FFF778FC00BF0BB05DF804FBF1
:1092900010B582B00190019B1B6816491846FFF774
:1092A0004AFD0246019B1A60019B04331A68019B28
:1092B0001C1D10491046FFF73EFD03462360019B2D
:1092C00008331A68019B03F108040A491046FFF7A6
:1092D00032FD03462360019B0C331A68019B03F1A6
:1092E0000C0404491046FFF726FD0346236000BF27
:1092F00002B010BD58BC030086B00190019B1B68F2
:109300001B0E1A06019B0C331B681B0C1B0403F479
:109310007F031A43019B08331B681B0A1B029BB285
:109320001A43019B04331B68DBB213430593019B73
:1093300004331B681B0E1A06019B1B681B0C1B04C5
:1093400003F47F031A43019B0C331B681B0A1B02A7
:109350009BB21A43019B08331B68DBB2134304938F
:10936000019B08331B681B0E1A06019B04331B6804
:109370001B0C1B0403F47F031A43019B1B681B0A8D
:109380001B029BB21A43019B0C331B68DBB21343D5
:109390000393019B0C331B681B0E1A06019B0833B9
:1093A0001B681B0C1B0403F47F031A43019B04334B
:1093B0001B681B0A1B029BB21A43019B1B68DBB292
:1093C00013430293019B059A1A60019B0433049A8C
:1093D0001A60019B0833039A1A60019B0C33029AAE
:1093E0001A6000BF06B0704710B588B001900198B0
:1093F000FFF76AFE07900798FFF766FE069006984B
:10940000FFF762FE0246019B53400593079A059BB6
:1094100053400493069A059B53400393019A079B7C
:109420005A40039B82EA030418210498FFF778FB53
:1094300003465C4010210398FFF772FB03465C4033
:1094400008210598FFF76CFB03466340184608B0F7
:1094500010BD10B582B00190019B1B681846FFF744
:10946000C3FF0246019B1A60019B04331A68019BEB
:109470001C1D1046FFF7B8FF03462360019B08330D
:109480001A68019B03F108041046FFF7ADFF03467D
:109490002360019B0C331A68019B03F10C041046F6
:1094A000FFF7A2FF0346236000BF02B010BD00B566
:1094B0008BB0039002910192039B1B680A2B09D089
:1094C000039B1B680C2B05D0039B1B680E2B01D044
:1094D000FCF70EFF0298FFF739FB03460493029B4B
:1094E00004331846FFF732FB03460593029B08330B
:1094F0001846FFF72BFB03460693029B0C331846D6
:10950000FFF724FB03460793039B1B689B009B000C
:10951000039A13440433099304AB09991846FFF7DF
:10952000FCFC099B103B0993039B1B68013B0893C0
:1095300016E004AB1846FFF7DFFE04AB1846FFF752
:10954000A7FE04AB09991846FFF7E7FC04AB1846E1
:10955000FFF77FFF099B103B0993089B013B089392
:10956000089B002BE5D104AB1846FFF7C5FE04AB02
:109570001846FFF78DFE04AB09991846FFF7CDFC9E
:10958000049B01991846FFF7F7FA059A019B0433EB
:1095900019461046FFF7F0FA069A019B0833194660
:1095A0001046FFF7E9FA079A019B0C33194610465B
:1095B000FFF7E2FA00BF0BB05DF804FB00B583B023
:1095C0000190F4210198FFF799FA00BF03B05DF80C
:1095D00004FB88B0039002910192039B0793029BC6
:1095E000069300238DF8173015E0069B5A1C06924F
:1095F0001B788DF81630079B5A1C07921B78DAB23D
:109600009DF816305340DBB25AB29DF91730134320
:109610005BB28DF81730019B5A1E0192002BE4D1EA
:109620009DF81730002B0CBF01230023DBB2184636
:1096300008B0704700B58BB00390019200930B46C1
:109640008DF80B30039B1B681B680993099B002B4B
:1096500001D1FCF74DFE05AB099A0021184610F028
:1096600009FA099B013B0AAA13449DF80B2003F851
:10967000142C0398FFF724F9009B002B0CD005A9AC
:109680000023099A0398FFF7A5F90123009A01998D
:109690000398FFF79FF905E005A90123099A0398AC
:1096A000FFF798F90C990398FFF710FA00BF0BB079
:1096B0005DF804FB00B5B9B00590049103920293E4
:1096C00014AB049A05991846FFF7E8F814A833ABD1
:1096D00000933D9B3C9A0021FFF7ACFF14A82FABF1
:1096E00000933B9B3A9A0121FFF7A4FF33AB07A8F5
:1096F000049A059905F0B9FE07A8029B3E9A0399C2
:1097000005F0FCFE14A82BAB0093029B3E9A0221AD
:10971000FFF790FF059B1B68409A9A4201D9FCF71E
:10972000E7FD0023379316E033AA379B13441A78DA
:109730002BA9379B0B441B785340D9B22FAA379BD8
:1097400013441A783F98379B03444A40D2B21A70A8
:10975000379B01333793379A409B9A42E4D300BF3B
:1097600000BF39B05DF804FB00B5BDB005900491B1
:109770000392029318AB049A05991846FFF78EF8E6
:1097800018A837AB0093419B409A0021FFF752FF86
:1097900018A833AB00933F9B3E9A0121FFF74AFF85
:1097A00018A82FAB0093029B039A0221FFF742FFF8
:1097B000439B002B04D0059B1B68439A9A4201D916
:1097C000FCF796FD00233B9317E037AA3B9B13441D
:1097D0001A782FA93B9B0B441B785340DAB233A96C
:1097E0003B9B0B441B785340D9B214AA3B9B1344B8
:1097F0000A461A703B9B01333B933B9A439B9A4228
:10980000E3D314AB439A42991846FFF7E2FE0346AE
:10981000002B01D101230CE037AB07A8049A05996E
:1098200005F023FE07A8029B449A039905F066FE03
:10983000002318463DB05DF804FB72DF704700BF9F
:10984000184673DF704700BF184674DF704700BFCB
:10985000184677DF704700BF1846000000B583B098
:1098600003468DF80730074B1B68002B05D0054BCE
:109870001B689DF807201046984700BF03B05DF8AD
:1098800004FB00BF4C25002000B587B001900023E9
:10989000059303F08DFC174B1B68019A1649184677
:1098A000FFF7CBFF0590059B0493049B002B04D08E
:1098B000124A5F210498FDF7B3FC0E4B1B681B781E
:1098C00000211846FFF7BDFF0590059B112B0CD01A
:1098D000059B002B09D0059B0393039B002B04D011
:1098E000064A65210398FDF79BFC00BF07B05DF8B1
:1098F00004FB00BF94250020D022002064BD03009B
:1099000000B583B001900B468DF8033013468DF8F7
:10991000023018220021019810F0ACF89DF80330B5
:10992000002B01D0052200E00122019B1A70019B4F
:1099300000225A60019B00221A759DF80330002B0B
:1099400002D04FF4804201E04FF47A72019B9A609A
:109950009DF80330002B01D0002307E09DF8023072
:10996000002B01D0002301E041F27073019A938132
:10997000019B01225A7500BF03B05DF804FB000093
:1099800000B597B04FF4EA43ADF80030184B1B78A0
:109990008DF8023001AB3C220021184610F06AF825
:1099A00002238DF8043000238DF806300123ADF832
:1099B00014306B4606930F4B0F4A9A600D4B1F22D3
:1099C0009A8101AB0B49184600F048FA0B4B1A7804
:1099D00010AB00211846FFF793FF10AB1846FFF7B6
:1099E00053FF0120FFF73AFF00BF17B05DF804FBFB
:1099F00052250020D022002074250020512500206F
:109A000000B583B00C4B1B681B781846FFF71DFF91
:109A10000190019B082B09D0019B0093009B002B18
:109A200004D0064AA1210098FDF7FAFB00F040FCA3
:109A300000BF03B05DF804FB9425002064BD030063
:109A400008B5074B1B7883F00103DBB2002B02D073
:109A500000F09EF801E0FFF793FF00BF08BD00BFD4
:109A60005125002000B58FB0019003F081F80D90D2
:109A70003B4B1B681B781846FFF7E7FE0C900C9BCE
:109A8000082B0ED00C9B43F20402934209D00C9B8E
:109A90000B930B9B002B04D0324AC4210B98FDF78B
:109AA000BFFB019B1B78002B24D1019B5B780D9A97
:109AB0009B011344013393F900301A460021012021
:109AC000FFF7C7FE0C900C9B43F20402934209D0AF
:109AD0000C9B0993099B002B04D0224ACD210998A5
:109AE000FDF79EFB019B5B781F4A0021184600F0A2
:109AF000C2F923E0019B1B78012B1FD10D9B93F82A
:109B00004C310D9A9B011344013393F900301A46EE
:109B100000210120FFF79DFE0C900C9B0A930A9BED
:109B2000002B04D00F4AD6210A98FDF779FB019B40
:109B30005B780D4A0121184600F09DF90020FFF7DF
:109B40008DFE0A4B1A7803AB01211846FFF7D8FEA9
:109B500003AB1846FFF798FE00BF0FB05DF804FB9B
:109B60009425002064BD0300D02200205125002050
:109B700008B5064B1B7883F00103DBB2002B03D042
:109B8000FFF73EFFFFF7FCFE00BF08BD5025002099
:109B900008B5034B1B88184600F03CFB00BF08BD0E
:109BA000CC22002082B003468DF80730034A9DF88E
:109BB0000730137000BF02B0704700BF512500206E
:109BC000014B1B78184670475125002000B583B023
:109BD0000190019B1B88262B14D0262B23DC102BF5
:109BE00002D0112B06D01EE0124B01221A70FFF793
:109BF000CFFF1BE00F4B00221A70FFF701FFFFF7AA
:109C00001FFF13E0019B1B7A012B0ED1094B1B7820
:109C100083F00103DBB2002B07D00220FFF71EFE0A
:109C2000FFF70EFF01E000BF00E000BF00BF03B080
:109C30005DF804FB5025002000B585B00346ADF863
:109C4000063002F095FF0390039B93F84131002BFF
:109C500006D0039B93F84D31002B01D0012300E087
:109C600000238DF80B309DF80B3003F001038DF8C5
:109C70000B309DF80B30002B0ED0039B93F8403136
:109C80009BB21A46920013441A4691001A460B469C
:109C900013445B019BB20AE0039B93F840319BB2F3
:109CA0001A465201D21A920013449B009BB2ADF89F
:109CB0000830BDF80820BDF80630934238BF13467F
:109CC0009AB2084B1A80074B1B8844F620629342D5
:109CD00003D9044B44F620621A8000BF05B05DF83A
:109CE00004FB00BFCC220020014B1B8818467047A4
:109CF000CC22002000B583B0009111461A460346DD
:109D00008DF807300B46ADF8043013468DF8063059
:109D10000E4A9DF8073013700D4A009B13600D4BDF
:109D200000221A700C4A9DF8063013700B4ABDF8D9
:109D3000043013800A4A049B136003F043FA094875
:109D400000F0BEFA00BF03B05DF804FB522500200E
:109D50004C2500205025002051250020CC22002039
:109D600094250020659A020008B500F0E3F900BFD1
:109D700008BD000000B59DB0039002910192354BE3
:109D80001B68099307AB00221A605A604FF6AA635A
:109D9000ADF81030029B002B06D0029A05AB92E87A
:109DA000030083E8030005E005AB07AA92E803007F
:109DB00083E803000AAB3C22002118460FF05AFE4C
:109DC00000238DF8283006238DF82B300123ADF8C1
:109DD000383009AB0F9304AB1493029B002B14BFD4
:109DE00001230023DBB28DF85430019B1968019BDD
:109DF0001A1D0AAB18460DF06CF81B901B9B1A93AA
:109E00001A9B002B04D0144A4B211A98FDF708FA2C
:109E1000039B002B13D0019B9968019B0C331A46BE
:109E200003980DF056F81B901B9B1993199B002B60
:109E30000BD0094A51211998FDF7F2F905E0019B71
:109E400000229A60019B00229A8100BF1DB05DF83C
:109E500004FB00BFB0BE030008BE030000B583B022
:109E600001900091009A00210198FFF783FF00BF45
:109E700003B05DF804FB00B587B0034600928DF88F
:109E800007300B468DF8063003AB00221A605A608B
:109E900002F06EFE05909DF80630002B0AD09DF86A
:109EA0000730184602F022FE059B93F84C318DF8DE
:109EB00007300AE09DF80730059A9B0113442633CA
:109EC0001B78202B01D102F0FBFD9DF807309B0190
:109ED0001033059A1344023304939DF80730059A12
:109EE0009B01134427331B789BB2ADF80C3003ABB6
:109EF000009A19460020FFF73DFF00BF07B05DF84C
:109F000004FB000000B583B00190084B1B68002BD8
:109F100007D0074B1B78002B03D0044B1B6801981C
:109F2000984700BF03B05DF804FB00BFDC250020AC
:109F30000A26002000B585B0019002F019FE0390BA
:109F4000039B93F84D31002B0CD0019B5A78039B57
:109F500093F84C319A4203D0019B1B78012B01D11D
:109F6000012300E0002303F00103DBB2184605B033
:109F70005DF804FB82B001900199084BA3FB01231B
:109F80009A0813469B001344CA1A002A0CBF0123E7
:109F90000023DBB2184602B0704700BFCDCCCCCC5A
:109FA00070B586B00190019B0593384A059B9B00D4
:109FB00013445B788DF80930344A059B12F823303E
:109FC0008DF80830324B1B78002B3DD02F4B93F887
:109FD0002830012B38D92D4B93F82830013B1A46F5
:109FE000059B934230D22B4E284A059B9B0013447D
:109FF0005B8898B24FF000014FF000024FF0000371
:10A00000CB0343EA5043C20312F5FA7443F100054F
:10A010004FF47A724FF00003204629460FF0BAFB46
:10A0200002460B461146059B01331A463046FEF7A1
:10A0300073F80490049B0393039B002B04D0164AEF
:10A040006D210398FDF7ECF8059B002B04D1134B11
:10A050001B680133114A136002AB1846FFF76AFF11
:10A060000346002B0AD00D4B1B681846FFF782FFF2
:10A07000034683F00103DBB2002B04D102AB184688
:10A08000FFF740FF00E000BF06B070BDE0250020F4
:10A090000A260020B8250020BCBE03000C260020A4
:10A0A00070B584B0019002F063FD034693F840312F
:10A0B000002B02D00020FFF773FF1A4B1B78002BF8
:10A0C0002CD0194E194B1B8898B24FF000014FF05D
:10A0D00000024FF00003CB0343EA5043C20312F5E2
:10A0E000FA7443F100054FF47A724FF000032046F2
:10A0F00029460FF04FFB02460B4613460022194635
:10A100003046FEF709F80390039B0293029B002B55
:10A1100004D0074A91210298FDF782F800BF04B0ED
:10A1200070BD00BF0A26002098250020D8250020F9
:10A13000BCBE030000B585B0114A00211148FDF7EF
:10A14000BBFF0390039B0293029B002B04D00E4A9B
:10A150009D210298FDF764F80C4A00210C48FDF798
:10A16000ABFF0390039B0193019B002B04D0064A95
:10A17000A2210198FDF754F800BF05B05DF804FB7B
:10A18000A1A00200B4BE0300BCBE0300A19F020058
:10A19000B8BE030000B58BB002F0EAFC09901A4B80
:10A1A0001B88ADF80430099B93F840318DF80630D8
:10A1B000099B03F5A1730293099B93F841318DF834
:10A1C0000C30099B03F247130493099B93F84D311C
:10A1D0008DF81430099B93F84C318DF815300B4BEA
:10A1E000069301AB184600F0BBF80890089B079354
:10A1F000079B002B04D0064AB7210798FDF710F8FB
:10A2000000BF0BB05DF804FBD8250020E02500203E
:10A21000BCBE030070B586B00346ADF8063002F050
:10A22000A7FC05901E4B01221A70059B93F8403144
:10A23000002B32D01B4ABDF8063013801A4E194B42
:10A240001B8898B24FF000014FF000024FF000035E
:10A25000CB0343EA5043C20312F5FA7443F10005FD
:10A260004FF47A724FF00003204629460FF092FA1D
:10A2700002460B461346002219463046FDF74CFFB6
:10A280000490049B0393039B002B04D0074ACA212C
:10A290000398FCF7C5FFFFF77DFF00BF06B070BD58
:10A2A0000A260020D825002098250020BCBE0300E7
:10A2B000024B00221A7000BF704700BF0A26002020
:10A2C00000B583B00190074B00221A70064A019B2B
:10A2D00013602A22002105480FF0CCFB00BF03B019
:10A2E0005DF804FB0A260020DC250020E025002084
:10A2F00082B00346ADF806300B468DF805301346A4
:10A300008DF80430BDF806209DF805309DF8041046
:10A310005B1A92FBF3F39BB2184602B0704784B00D
:10A32000034600918DF8073013468DF80630002360
:10A3300003930CE0009A039B13441B789DF80720BD
:10A340009A4201D1012308E0039B013303939DF856
:10A350000630039A9A42EDD30023184604B07047A2
:10A3600000B589B00190019B002B01D10E23AEE016
:10A3700000238DF81F30019B1B7C002B05D0019B17
:10A380001B7A002B01D0012300E000238DF8173049
:10A390009DF8173003F001038DF81730019B9B786F
:10A3A000002B01D1072392E0019B1888019B9B7829
:10A3B0009DF817201946FFF79BFF0346ADF81430B0
:10A3C0000023069365E0019B5A68069B13441B78A3
:10A3D0008DF813309DF8173083F00103DBB2002BAA
:10A3E00005D1019B5B7C9DF813209A424ED0019BC6
:10A3F0005A699DF81F309B0013440393039B9DF8FB
:10A4000013205A70039B00221A70039BBDF814207E
:10A410005A809DF81F3001338DF81F309DF817309A
:10A42000002B33D0019BD968019B1A7A9DF8133019
:10A430001846FFF774FF0346002B27D0019B5A698B
:10A440009DF81F309B0013440293039B4FF49672B8
:10A450005A80029B9DF813205A70029B01221A70A9
:10A46000BDF81430B3F5967F07D9BDF81430A3F5C5
:10A4700096739AB2029B5A8003E0029B4FF4FA72E1
:10A480005A809DF81F3001338DF81F30069B013331
:10A490000693019B9B781A46069B934293D3019B9C
:10A4A0005B699DF81F2083F82820019B5B6993F866
:10A4B0002830002B0AD0019B5A69019B5B6993F8F5
:10A4C0002830013B9B00134400225A800023184689
:10A4D00009B05DF804FB000000B583B00190009165
:10A4E000019B002B01D1054B01930099019808F0C5
:10A4F00023FF0346184603B05DF804FB28C00300A1
:10A5000084B00190019B1B78002B1AD1019B5B68E2
:10A510001B88ADF80E30BDF90E304FF4167202FBF9
:10A5200003F3002B01DA03F2FF339B129BB21A46AE
:10A53000520013445B009BB203F587739AB2024B3F
:10A540001A8000BF04B070471226002000B589B001
:10A5500021490020FFF7C0FF0790079B0693069B49
:10A56000002B04D01D4A4C210698FCF759FE1C4ACA
:10A570006B4607CA03C31A706B461946002008F0E1
:10A5800047FF0790079B0593059B002B04D0134AB8
:10A5900051210598FCF744FE0121124808F0D2FF32
:10A5A0000790079B0493049B002B04D00B4A542173
:10A5B0000498FCF735FE09F069F80790079B0393B0
:10A5C000039B002B04D0054A57210398FCF728FE73
:10A5D00000BF09B05DF804FB01A5020068BF0300DD
:10A5E0001CC003001026002000B587B00190019B1D
:10A5F000002B28D0164B1A88019B1A8009F072F89C
:10A60000034683F00103DBB2002B1DD0012111486A
:10A6100008F098FF0590059B0493049B002B04D041
:10A620000D4A63210498FCF7FBFD09F02FF8059013
:10A63000059B0393039B002B06D0074A66210398D2
:10A64000FCF7EEFD00E000BF07B05DF804FB00BFC3
:10A65000122600201026002068BF0300BFF34F8F92
:10A6600000BF074BDB6803F4E0620549054B134369
:10A67000CB60BFF34F8F00BF00BF00BFFCE700BF40
:10A6800000ED00E00400FA0508B5FFF7E7FF42F22D
:10A690000303184608BD76DF704700BF1846000068
:10A6A00000B585B001900B46ADF8023004F07CFB9C
:10A6B0000390039B002B09D003230293029B002BE2
:10A6C00004D1074A65210020FCF7AAFD054B1B6851
:10A6D0000133044A136000BF05B05DF804FB00BFFE
:10A6E0002CC003001426002000B587B00190019B08
:10A6F0001B78052B4CD801A252F823F015A70200B5
:10A7000077A7020077A702001DA702001DA702007D
:10A710003FA70200204B00221A6039E01F4A0021A7
:10A720000020FCF769FE0590059B0393039B002B1B
:10A730002BD01B4A7C210398FCF772FD25E0194BB6
:10A740001B78DBB2002B16D0174B1B884FF6FF721D
:10A75000934210D0144B1B8813211846FFF79BFF20
:10A760000590059B0493049B002B04D00C4A842184
:10A770000498FCF755FD084B1B68002B07D0064BCF
:10A780001B68013B044A136001E000BF00E000BF0A
:10A7900000BF07B05DF804FB14260020A1A602004C
:10A7A0002CC0030018260020EA22002000B58FB03C
:10A7B00001900BAB00221A605A6008AB00221A60AD
:10A7C0005A609A6006AB00221A605A6003AB0022FE
:10A7D0001A605A609A60019B5B88ADF80C30019B4F
:10A7E0005B680493019B1B8806AA08A9184604F01D
:10A7F0000BFB0D90019B9B7B002B04D10D9B002B31
:10A8000001D00D9B77E0019B9B7B022B04D10D9B1C
:10A810000A2B01D100236EE0019B9B7B022B56D0BB
:10A82000022B64DC002B02D0012B1ED05FE00BAAB0
:10A8300008AB1146184604F0A3F90D900D9B002BB0
:10A8400001D00D9B57E0019B98680C99019B9B8957
:10A850001A460FF0E6F808AB184604F0CDF90D9053
:10A860000D9B002B45D00D9B45E0019B5868019B3B
:10A870009968019B9B891A460FF0D3F8019B9B892D
:10A880000333002B00DA03339B100593019B1B88D5
:10A89000ADF80E300D9B0A2B07D103AA08AB114669
:10A8A000184604F0F1F90D9006E003AA08AB114632
:10A8B000184604F0F8F90D900D9B002B01D00D9B6C
:10A8C00019E00F4B1B6801330D4A136012E008AB0F
:10A8D000184604F0FDF90D900D9B002B01D00D9B47
:10A8E00009E0074B1B680133054A136002E000BF13
:10A8F00000E000BF002318460FB05DF804FB00BF66
:10A900001426002000B587B001900B468DF8033067
:10A910000423ADF8083041F23833ADF80A300A4B61
:10A920000393019B04931023ADF814309DF803307A
:10A930008DF8163002AB1846FFF738FF034618466D
:10A9400007B05DF804FB00BF5C27002000B589B0AC
:10A9500001900B468DF803300523ADF80C3041F221
:10A960003733ADF80E300A4B0493019B0593042353
:10A97000ADF818309DF803308DF81A3003AB184647
:10A98000FFF714FF0790079B184609B05DF804FB1A
:10A990007427002000B587B0034600918DF807307A
:10A9A00013468DF806309DF80730042B01D9072394
:10A9B0001EE09DF80730104A32F81330ADF8083029
:10A9C00041F23733ADF80A309DF807300B4A52F8A0
:10A9D00023300393009B04934023ADF814309DF87B
:10A9E00006308DF8163002AB1846FFF7DFFE03463F
:10A9F000184607B05DF804FBE0220020EC2200209E
:10AA000000B587B001900B468DF803300123ADF8F7
:10AA1000083041F23733ADF80A300A4B0393019BFB
:10AA200004930723ADF814309DF803308DF81630E9
:10AA300002AB1846FFF7BAFE0346184607B05DF8AA
:10AA400004FB00BF6C27002000B583B041F2373013
:10AA500004F072F90190019B002B02D1034B0122FB
:10AA60001A70019B184603B05DF804FB18260020FD
:10AA7000014B1B68184670471426002000B583B0B0
:10AA80000190019B1B88102B02D0112B05D010E0E8
:10AA9000019B9A88094B1A800BE0084B4FF6FF7216
:10AAA0001A80074B1B78DBB2002B01D0FFF7ECFDBF
:10AAB00000BF00BF03B05DF804FB00BFEA22002026
:10AAC0001826002000B583B00F4B01221A600F4BEF
:10AAD0004FF6FF721A800E4B00221A700D4803F0D9
:10AAE00051FF0190019B002B01D0019B08E003F076
:10AAF000B7FF0190019B002B01D0019B00E00023D8
:10AB0000184603B05DF804FB14260020EA2200205A
:10AB100018260020E9A60200B0DF704700BF1846E3
:10AB200082B00190044B1B78002B14BF012300233B
:10AB3000DBB2184602B070477827002000B583B01A
:10AB400001900091019B002B01D10E2315E0009B89
:10AB5000002B01D10E2310E0019BB3F864304FF6B7
:10AB6000FF72934208D0019BB3F8643000991846F5
:10AB7000FFF7D2FF034600E00823184603B05DF854
:10AB800004FB00B587B001900B468DF8033002AB93
:10AB900000221A605A609A60DA60019B002B01D192
:10ABA0000E2318E09DF80330002B07D001238DF809
:10ABB00008304FF48173ADF80C3006E002238DF8B5
:10ABC000083040F20313ADF80C3002AB194601987F
:10ABD000FFF7B4FF0346184607B05DF804FB00001A
:10ABE00000B58DB0059003930B46ADF812301346B7
:10ABF000ADF810300598FFF793FF0346002B2FD0D8
:10AC0000BDF8123047F2075293420FD10021059848
:10AC1000FFF7B7FF0B900B9B0793079B002B48D0C8
:10AC2000264A71210798FCF7FBFA42E0244B1B7877
:10AC3000BDF81020BDF812100193BDF83830009314
:10AC4000039B059800F082FB0B900B9B0893089BDD
:10AC5000002B2ED0194A78210898FCF7E1FA28E059
:10AC6000BDF8123047F20752934213D1BDF81030AD
:10AC7000BDF838200399059800F06AFC0B900B9BF7
:10AC80000993099B002B14D00C4A81210998FCF7E9
:10AC9000C7FA0EE000210598FFF773FF0B900B9B9E
:10ACA0000A930A9B002B04D0044A87210A98FCF7D8
:10ACB000B7FA00BF0DB05DF804FB00BFD0C00300C1
:10ACC0007927002000B58BB003900B46ADF80A3011
:10ACD0001346ADF808300398FFF722FF0346002B18
:10ACE0002ED0BDF80A3047F2075293420FD101210E
:10ACF0000398FFF746FF0990099B0593059B002BDE
:10AD000046D0254A96210598FCF78AFA40E0234B65
:10AD10001878234B1B78BDF80820BDF80A10009363
:10AD20000346039800F0C8F90990099B0693069B17
:10AD3000002B2DD0184A9C210698FCF771FA27E0C9
:10AD4000BDF80A3047F2075293420ED1039800F043
:10AD500092F90990099B0793079B002B18D00E4A84
:10AD6000A5210798FCF75CFA12E00D4B1A78BDF8A4
:10AD70000A301946039800F046F90990099B089398
:10AD8000089B002B04D0044AAB210898FCF748FA32
:10AD900000BF0BB05DF804FBD0C003007927002092
:10ADA0007827002082B00190019B002B01D10E2357
:10ADB0000CE0084B00221A70074B00221A70019B0E
:10ADC000044A1A67019B044A5A670023184602B0D6
:10ADD000704700BF7927002078270020ADDF70473B
:10ADE00000BF184600B583B001900091019B002B75
:10ADF00001D10E2314E0009B002B01D10E230FE0A4
:10AE0000009B01221A70009A937943F00103937119
:10AE1000009B00221A8100990198FFF78FFE0346DC
:10AE2000184603B05DF804FB00B589B003900B46EB
:10AE300001928DF80B30039B002B01D10E231AE0F9
:10AE4000019B002B01D10E2315E004AB00221A60F8
:10AE50005A609A60DA609DF80B309BB2ADF81A30F8
:10AE6000019B07930023ADF8143004AB19460398F7
:10AE7000FFF7B8FF0346184609B05DF804FB00B5BC
:10AE80008FB001900B46ADF80230019B002B01D131
:10AE90000E2327E00023049305AB1E220021184651
:10AEA0000EF0E8FD2223ADF808300023ADF80A309B
:10AEB00004AB0393019BB3F8643002AABDF80210FF
:10AEC0001846FFF78BFF0D900D9B002B01D00D9BBB
:10AED00008E0BDF80830DBB2039A19460198FFF785
:10AEE000A3FF034618460FB05DF804FB00B58FB012
:10AEF00003900B4601928DF80B30039B002B01D180
:10AF00000E237CE00AAB00221A605A609A60DA6075
:10AF10009DF80B30019A9B01134426331B78302B8C
:10AF20003BD19DF80B30184601F03AF803460593E3
:10AF3000059B1A06059B1B0203F47F031A43059B1E
:10AF40001B0A03F47F41059B1B0E0B431343059320
:10AF50000E23ADF8323030238DF818309DF80B30C9
:10AF6000184601F047F803468DF8193005A906ABDD
:10AF70000233042218460EF054FD9DF80B309B015D
:10AF80001033019A1344191D06AB063308221846E4
:10AF90000EF047FD06AB0D9328E0019B93F841317D
:10AFA000002B11D0019B93F84D31002B0CD0019B4D
:10AFB00093F84C319DF80B209A4205D1019B93F8F0
:10AFC0004731184601F092FD9DF80B30019A9B0124
:10AFD000134427331B789BB2ADF832309DF80B3009
:10AFE0009B011033019A134402330D930023ADF8F3
:10AFF0002C300AAB19460398FFF7F4FE03461846B7
:10B000000FB05DF804FB00B585B001900B46ADF8BC
:10B01000023013468DF80130019B002B01D10E2325
:10B0200025E0BDF8023047F20C5293420BD10123C8
:10B030008DF80F300DF10F031A4601210198FFF72B
:10B04000F3FE034613E0BDF8023047F20652934286
:10B0500008D10DF101031A4601210198FFF7E4FE22
:10B06000034604E001210198FFF78BFD03461846D3
:10B0700005B05DF804FB00B589B00190019B002B81
:10B0800001D10E2314E003AB184600F0D7FD079062
:10B09000079B002B01D0079B0AE003AB184600F08A
:10B0A0007FFD03AB1A4610210198FFF7BDFE034652
:10B0B000184609B05DF804FB00B587B00390084658
:10B0C00011461A460346ADF80A300B46ADF8083073
:10B0D00013468DF80730039B002B01D10E23B6E0F9
:10B0E00001F046FD0590BDF80A30A3F5EA43013BA7
:10B0F0000B2B00F2AB8001A252F823F02DB102001D
:10B100002DB102004BB1020083B102009DB10200DB
:10B110003DB102002DB102002DB10200F1B10200DB
:10B120003BB202004DB20200D9B10200BDF80830B6
:10B1300019460398FFF7A3FE034688E008AA0121F9
:10B140000398FFF771FE034681E0FEF7CDFD03464D
:10B15000ADF81230BDF812301B021AB2BDF8123031
:10B160001B0A9BB21BB213431BB29BB2ADF8123049
:10B170000DF112031A4602210398FFF755FE03460C
:10B1800065E09DF807309B01059A134401331A4688
:10B1900001210398FFF748FE034658E09DF8073069
:10B1A000059A9B01134428331B78002B07D09DF888
:10B1B00007309B012833059A1344013305E09DF8BD
:10B1C00007309B01059A134401331A460121039865
:10B1D000FFF72AFE03463AE001238DF811300DF106
:10B1E00011031A4601210398FFF71EFE03462EE0C5
:10B1F0009DF80730059A9B0113442A331B78002BD6
:10B2000015D09DF80730059A9B01134426331B780F
:10B21000302B0CD19DF807309B01059A1344023363
:10B220001A4610210398FFF7FFFD03460FE00121A6
:10B230000398FFF7A6FC034609E09DF80730059A3E
:10B2400019460398FFF752FE034600E0072318460D
:10B2500007B05DF804FB00BFACDF704700BF1846C5
:10B2600000B583B001900091019B002B01D10E230A
:10B2700014E0009B002B01D10E230FE0009B022263
:10B280001A70009A937943F001039371009B002296
:10B290001A8100990198FFF751FC0346184603B044
:10B2A0005DF804FB82B001900B468DF803309DF8E9
:10B2B0000330002B07D09DF80330012B05D1019BF3
:10B2C0001B78002B01D101233DE0019B1B78302B23
:10B2D00029D0302B36DC202B1DD0202B32DC002B4C
:10B2E00002D0102B08D02DE09DF80330112B0CBF9D
:10B2F00001230023DBB226E09DF80330032B05D9A0
:10B300009DF80330132B01D8012300E0002303F044
:10B310000103DBB217E09DF80330012B0CBF0123C2
:10B320000023DBB20FE09DF80330222B03D09DF801
:10B330000330122B01D1012300E0002303F00103AD
:10B34000DBB200E00023184602B0704700B58BB0B6
:10B35000039001930B46ADF80A301346ADF8083060
:10B36000039B002B01D10E23EEE0019B002B01D1AA
:10B370000E23E9E004AB00221A605A609A60DA609A
:10B3800000238DF827300023ADF81430BDF80A30C3
:10B39000A3F5EA43023B0A2B00F2BA8001A252F85D
:10B3A00023F000BFD1B30200EBB302000BB40200E4
:10B3B0001FB4020033B4020011B5020011B502003F
:10B3C00011B502008BB40200E1B40200F9B402002E
:10B3D000019B1B78042B40F29D8040F20D13ADF8C9
:10B3E00014300023ADF8303094E0019B1B881B0221
:10B3F0001AB2019B1B881B0A9BB21BB213431BB2E0
:10B400009BB21846FEF718FC89E0019B93F90020D7
:10B410009DF834301146184601F0E4F97FE0019BB5
:10B4200093F900209DF834301146184601F00CFACB
:10B4300075E0BDF83030012B07D1019B1B78002B44
:10B4400021D0019B1B78022B1DD0BDF83030112B71
:10B4500012D1019B1B78002B0ED1019B01331846A2
:10B4600000F064FB0890089B002B01D0089B6BE068
:10B470000123ADF8303007E0019B00221A70012350
:10B48000ADF830304BE000BF49E0BDF83030142B50
:10B4900002D901238DF82730BDF83030DBB21946D0
:10B4A0000198FFF7FFFE0346002B01D0002301E0C7
:10B4B00040F20D13ADF81430BDF81430002B2BD131
:10B4C000BDF83030D9B29DF83430019A184601F0F9
:10B4D000E9F9FEF709FC03461846FEF7ADFB1BE051
:10B4E000019B1B780B2B19D1FFF7AEFA0890089B34
:10B4F000002B13D0089B27E0019B1B78002B03D067
:10B500000120FEF74FFB0AE00020FEF74BFB06E0B0
:10B5100000BF04E000BF02E000BF00E000BFBDF8D4
:10B520003030ADF81A30019B07939DF8273083F037
:10B530000103DBB2002B06D004AB19460398FFF7DA
:10B540008FFE034600E0002318460BB05DF804FBB5
:10B5500000B58DB00390029111461A460B46ADF826
:10B5600006301346ADF80430039B002B01D10E23A7
:10B570003CE0029B002B01D10E2337E007AB0022F9
:10B580001A605A609A60DA60BDF80630ADF814307F
:10B590000023ADF81630029B0693BDF80630102B41
:10B5A00018D1039BB3F8643005AABDF804101846FF
:10B5B000FFF752FE0B900B9B002B07D10023ADF839
:10B5C0002030069B184600F021FB03E040F20313F5
:10B5D000ADF82030BDF80630ADF82630069B0A9352
:10B5E00007AB19460398FFF73BFE034618460DB01C
:10B5F0005DF804FB00B58DB003468DF81F301023B5
:10B6000008939DF81F30742202FB03F340335D4A18
:10B6100013441022002118460EF02CFA9DF81F202A
:10B620009DF81F305749742000FB02F20A446C3227
:10B630001078544A742101FB03F313444B33024640
:10B640001A709DF81F304F4A742101FB03F3134415
:10B6500068331B689DF81F204A49742000FB02F2E2
:10B660000A446C321278D3409DF81F20454974205B
:10B6700000FB02F20A446C32127893400B930B9B4E
:10B680001A0E9DF81F30D0B23E4A742101FB03F31D
:10B6900013444C3302461A700B9B1A0C9DF81F3052
:10B6A000D0B2384A742101FB03F313444D330246F0
:10B6B0001A700B9B1A0A9DF81F30D0B2314A7421C0
:10B6C00001FB03F313444E3302461A709DF81F30FA
:10B6D0000B9AD0B22B4A742101FB03F313444F336E
:10B6E00002461A709DF81F30742202FB03F33033B8
:10B6F000244A98189DF81F30742202FB03F340334C
:10B70000204A13449DF81F20742101FB02F250329D
:10B710001C490A4408A90491039210220292019341
:10B7200000230093034601221749184809F00CFE34
:10B730000A900A9B0993099B002B04D0144A852187
:10B740000998FBF76DFD9DF81F30742202FB03F38F
:10B7500060330C4A98189DF81F30742202FB03F3E3
:10B760005033084A1344082219460EF05AF9094B7F
:10B770001B689DF81F2001211046984700BF0DB09F
:10B780005DF804FBAC27002090C90300482A002084
:10B7900074C10300402A002000B58DB003468DF827
:10B7A0001F30102309939DF81F30742202FB03F30E
:10B7B0001033414A13441022002118460EF05AF962
:10B7C0009DF81F303C4A742101FB03F313441B33E3
:10B7D000FF221A709DF81F30374A742101FB03F3D2
:10B7E000134468331B681A0E9DF81F30D0B2324ADA
:10B7F000742101FB03F313441E3302461A709DF8B3
:10B800001F302D4A742101FB03F3134468331B6876
:10B810001A0C9DF81F30D0B2274A742101FB03F3A4
:10B8200013441F3302461A709DF81F30742202FB26
:10B8300003F3214A98189DF81F30742202FB03F38A
:10B8400010331D4A13449DF81F20742101FB02F29E
:10B85000203219490A4409A9049103921022029244
:10B86000019300230093034601221449144809F070
:10B870006BFD0B900B9B0A930A9B002B04D0114A83
:10B88000A6210A98FBF7CCFC9DF81F30742202FB1E
:10B8900003F33033084A98189DF81F30742202FBD6
:10B8A00003F32033044A1344102219460EF0B9F86A
:10B8B00000BF0DB05DF804FBAC27002090C9030069
:10B8C000482A002074C1030000B583B003468DF8F8
:10B8D00007309DF80730194A742101FB03F3134424
:10B8E00068331B689BB2002B04D19DF807301846C3
:10B8F000FFF752FF9DF80730104A742101FB03F354
:10B90000134468331B689DF807200C49742000FB22
:10B9100002F20A446C321278013A022101FA02F270
:10B92000013A1340002B04D19DF807301846FFF769
:10B9300061FE00BF03B05DF804FB00BFAC27002030
:10B9400010B58AB0019000210198FEF7DBFF099045
:10B95000099B0A2B09D0099B0893089B002B04D054
:10B96000124AC5210898FBF75BFC099B0A2B19D1E9
:10B970000F4B03AC0FCB84E80F0003AB102219462A
:10B9800001980EF04EF801210198FEF7BBFF0990D7
:10B99000099B0793079B002B04D0044ACF210798EB
:10B9A000FBF73EFC00BF0AB010BD00BF74C103002E
:10B9B0001CC2030000B585B0304B1B78184601F05F
:10B9C000A3FA0190019B002B53D00023039323E0A3
:10B9D0002B4A039B742101FB03F3134470331B7840
:10B9E000002B16D0264A039B742101FB03F313445A
:10B9F00068331A68019B1A442149039B742000FB99
:10BA000003F30B4468331A60039BDBB21846FFF75D
:10BA10005BFF039B01330393039B042BD8D9194B82
:10BA20001A68019B1344174A1360174B0093154B78
:10BA30001B68009A9A421CD80023029313E0104A14
:10BA4000029B742101FB03F3134470331B78002B1A
:10BA500006D00E4B1B68029AD2B2042110469847BA
:10BA6000029B01330293029B042BE8D9054B002271
:10BA70001A6000BF05B05DF804FB00BF442A002037
:10BA8000AC270020A02D002080510100402A00207A
:10BA900000B585B00292019303468DF80F300B4636
:10BAA0008DF80E309DF80F301E4A742101FB03F310
:10BAB00013446C339DF80E201A709DF80F30194A0C
:10BAC000742101FB03F313446833029A1A609DF852
